{
  "_format": "hh-sol-artifact-1",
  "contractName": "MockDEX",
  "sourceName": "contracts/MockDEX.sol",
  "abi": [
    {
      "inputs": [
        {
          "internalType": "address",
          "name": "_token",
          "type": "address"
        }
      ],
      "stateMutability": "nonpayable",
      "type": "constructor"
    },
    {
      "inputs": [
        {
          "internalType": "uint256",
          "name": "amount",
          "type": "uint256"
        }
      ],
      "name": "pullTokens",
      "outputs": [],
      "stateMutability": "nonpayable",
      "type": "function"
    },
    {
      "inputs": [],
      "name": "swapMonForToken",
      "outputs": [],
      "stateMutability": "payable",
      "type": "function"
    },
    {
      "inputs": [],
      "name": "token",
      "outputs": [
        {
          "internalType": "contract IERC20",
          "name": "",
          "type": "address"
        }
      ],
      "stateMutability": "view",
      "type": "function"
    }
  ],
  "bytecode": "0x608060405234801561001057600080fd5b5060405161075e38038061075e833981810160405281019061003291906100db565b806000806101000a81548173ffffffffffffffffffffffffffffffffffffffff021916908373ffffffffffffffffffffffffffffffffffffffff16021790555050610108565b600080fd5b600073ffffffffffffffffffffffffffffffffffffffff82169050919050565b60006100a88261007d565b9050919050565b6100b88161009d565b81146100c357600080fd5b50565b6000815190506100d5816100af565b92915050565b6000602082840312156100f1576100f0610078565b5b60006100ff848285016100c6565b91505092915050565b610647806101176000396000f3fe6080604052600436106100345760003560e01c80633091f934146100395780637e0db6cc14610043578063fc0c546a1461006c575b600080fd5b610041610097565b005b34801561004f57600080fd5b5061006a60048036038101906100659190610300565b6101bf565b005b34801561007857600080fd5b506100816102a1565b60405161008e91906103ac565b60405180910390f35b600034116100da576040517f08c379a00000000000000000000000000000000000000000000000000000000081526004016100d190610424565b60405180910390fd5b600034905060008054906101000a900473ffffffffffffffffffffffffffffffffffffffff1673ffffffffffffffffffffffffffffffffffffffff1663a9059cbb33836040518363ffffffff1660e01b815260040161013a929190610474565b6020604051808303816000875af1158015610159573d6000803e3d6000fd5b505050506040513d601f19601f8201168201806040525081019061017d91906104d5565b6101bc576040517f08c379a00000000000000000000000000000000000000000000000000000000081526004016101b39061054e565b60405180910390fd5b50565b60008054906101000a900473ffffffffffffffffffffffffffffffffffffffff1673ffffffffffffffffffffffffffffffffffffffff166323b872dd3330846040518463ffffffff1660e01b815260040161021c9392919061056e565b6020604051808303816000875af115801561023b573d6000803e3d6000fd5b505050506040513d601f19601f8201168201806040525081019061025f91906104d5565b61029e576040517f08c379a0000000000000000000000000000000000000000000000000000000008152600401610295906105f1565b60405180910390fd5b50565b60008054906101000a900473ffffffffffffffffffffffffffffffffffffffff1681565b600080fd5b6000819050919050565b6102dd816102ca565b81146102e857600080fd5b50565b6000813590506102fa816102d4565b92915050565b600060208284031215610316576103156102c5565b5b6000610324848285016102eb565b91505092915050565b600073ffffffffffffffffffffffffffffffffffffffff82169050919050565b6000819050919050565b600061037261036d6103688461032d565b61034d565b61032d565b9050919050565b600061038482610357565b9050919050565b600061039682610379565b9050919050565b6103a68161038b565b82525050565b60006020820190506103c1600083018461039d565b92915050565b600082825260208201905092915050565b7f4d7573742073656e64204d4f4e00000000000000000000000000000000000000600082015250565b600061040e600d836103c7565b9150610419826103d8565b602082019050919050565b6000602082019050818103600083015261043d81610401565b9050919050565b600061044f8261032d565b9050919050565b61045f81610444565b82525050565b61046e816102ca565b82525050565b60006040820190506104896000830185610456565b6104966020830184610465565b9392505050565b60008115159050919050565b6104b28161049d565b81146104bd57600080fd5b50565b6000815190506104cf816104a9565b92915050565b6000602082840312156104eb576104ea6102c5565b5b60006104f9848285016104c0565b91505092915050565b7f546f6b656e207472616e73666572206661696c65640000000000000000000000600082015250565b60006105386015836103c7565b915061054382610502565b602082019050919050565b600060208201905081810360008301526105678161052b565b9050919050565b60006060820190506105836000830186610456565b6105906020830185610456565b61059d6040830184610465565b949350505050565b7f5472616e73666572206661696c65640000000000000000000000000000000000600082015250565b60006105db600f836103c7565b91506105e6826105a5565b602082019050919050565b6000602082019050818103600083015261060a816105ce565b905091905056fea26469706673582212207bf60936c89a0a31798b56fd4223a72c8897c673923a5c174236964f6b5079b764736f6c634300081c0033",
  "linkReferences": {},
  "deployedLinkReferences": {}
}