{
  "_format": "hh-sol-artifact-1",
  "contractName": "QuestBadges",
  "sourceName": "contracts/QuestBadges.sol",
  "abi": [
    {
      "anonymous": false,
      "inputs": [
        {
          "indexed": true,
          "internalType": "address",
          "name": "user",
          "type": "address"
        },
        {
          "indexed": true,
          "internalType": "uint8",
          "name": "questId",
          "type": "uint8"
        },
        {
          "indexed": false,
          "internalType": "uint256",
          "name": "timestamp",
          "type": "uint256"
        }
      ],
      "name": "QuestCompleted",
      "type": "event"
    },
    {
      "inputs": [
        {
          "internalType": "uint8",
          "name": "questId",
          "type": "uint8"
        }
      ],
      "name": "completeQuest",
      "outputs": [],
      "stateMutability": "nonpayable",
      "type": "function"
    },
    {
      "inputs": [
        {
          "internalType": "address",
          "name": "",
          "type": "address"
        },
        {
          "internalType": "uint8",
          "name": "",
          "type": "uint8"
        }
      ],
      "name": "completed",
      "outputs": [
        {
          "internalType": "bool",
          "name": "",
          "type": "bool"
        }
      ],
      "stateMutability": "view",
      "type": "function"
    },
    {
      "inputs": [
        {
          "internalType": "address",
          "name": "user",
          "type": "address"
        },
        {
          "internalType": "uint8",
          "name": "questId",
          "type": "uint8"
        }
      ],
      "name": "hasCompleted",
      "outputs": [
        {
          "internalType": "bool",
          "name": "",
          "type": "bool"
        }
      ],
      "stateMutability": "view",
      "type": "function"
    }
  ],
  "bytecode": "0x6080604052348015600f57600080fd5b506104ea8061001f6000396000f3fe608060405234801561001057600080fd5b50600436106100415760003560e01c80631a79835c14610046578063813ecde914610062578063a620c84414610092575b600080fd5b610060600480360381019061005b9190610302565b6100c2565b005b61007c6004803603810190610077919061038d565b610228565b60405161008991906103e8565b60405180910390f35b6100ac60048036038101906100a7919061038d565b610257565b6040516100b991906103e8565b60405180910390f35b6000803373ffffffffffffffffffffffffffffffffffffffff1673ffffffffffffffffffffffffffffffffffffffff16815260200190815260200160002060008260ff1660ff16815260200190815260200160002060009054906101000a900460ff1615610165576040517f08c379a000000000000000000000000000000000000000000000000000000000815260040161015c90610460565b60405180910390fd5b60016000803373ffffffffffffffffffffffffffffffffffffffff1673ffffffffffffffffffffffffffffffffffffffff16815260200190815260200160002060008360ff1660ff16815260200190815260200160002060006101000a81548160ff0219169083151502179055508060ff163373ffffffffffffffffffffffffffffffffffffffff167fb3696ef41ea2fb5eaa3cbf2687bd533b9bbc99dbcefef6eedf454a5ab7105b794260405161021d9190610499565b60405180910390a350565b60006020528160005260406000206020528060005260406000206000915091509054906101000a900460ff1681565b60008060008473ffffffffffffffffffffffffffffffffffffffff1673ffffffffffffffffffffffffffffffffffffffff16815260200190815260200160002060008360ff1660ff16815260200190815260200160002060009054906101000a900460ff16905092915050565b600080fd5b600060ff82169050919050565b6102df816102c9565b81146102ea57600080fd5b50565b6000813590506102fc816102d6565b92915050565b600060208284031215610318576103176102c4565b5b6000610326848285016102ed565b91505092915050565b600073ffffffffffffffffffffffffffffffffffffffff82169050919050565b600061035a8261032f565b9050919050565b61036a8161034f565b811461037557600080fd5b50565b60008135905061038781610361565b92915050565b600080604083850312156103a4576103a36102c4565b5b60006103b285828601610378565b92505060206103c3858286016102ed565b9150509250929050565b60008115159050919050565b6103e2816103cd565b82525050565b60006020820190506103fd60008301846103d9565b92915050565b600082825260208201905092915050565b7f416c726561647920636f6d706c65746564000000000000000000000000000000600082015250565b600061044a601183610403565b915061045582610414565b602082019050919050565b600060208201905081810360008301526104798161043d565b9050919050565b6000819050919050565b61049381610480565b82525050565b60006020820190506104ae600083018461048a565b9291505056fea26469706673582212200534ba411cc8874ff6516a62709da1b8164b11799a7c3532ee6c4a61a88b077664736f6c634300081c0033",
  "linkReferences": {},
  "deployedLinkReferences": {}
}